:020000040800F2
:10000000002800203D170008E5110008EB1100084A
:10001000F1110008F7110008FD11000800000000B0
:1000200000000000000000000000000003120008B3
:100030000F120008000000001B1200082712000821
:100040008517000885170008851700088517000820
:100050008517000885170008851700088517000810
:100060008517000885170008851700088517000800
:1000700085170008851700088517000885170008F0
:1000800085170008851700088517000885170008E0
:1000900085170008851700088517000885170008D0
:1000A00085170008851700088517000885170008C0
:1000B00035120008851700080000000085170008A9
:1000C00085170008000000000000000085170008E8
:1000D00000000000851700088517000800000000D8
:1000E0008517000885170008851700080000000024
:1000F0000000000000000000000000000000000000
:0C01000000000000000000005FF808F1A3
:10010C0010B5054C237833B9044B13B10448AFF345
:10011C0000800123237010BD44000020000000006B
:10012C00B42D000808B5034B1BB103490348AFF3CA
:10013C00008008BD0000000048000020B42D00081D
:10014C0080B483B000AF7860094A7B6852F82330E2
:10015C00012B06D1064A7B68002142F823100123AB
:10016C0000E0002318460C37BD4680BC704700BF2A
:10017C006000002080B483B000AF7860094A7B68CF
:10018C0052F82330012B06D1064A7B68002142F835
:10019C002310012300E0002318460C37BD4680BC19
:1001AC00704700BF6C00002080B582B000AF002308
:1001BC007B6079E0404A7B68134419783F4A7B683E
:1001CC0013440A461A703E4A7B68134419783A4A1B
:1001DC007B6813440A461A703A4A7B6852F823200B
:1001EC0039497B6831F813301946104601F0B0FDDF
:1001FC0003461946324A7B6813440A461A702F4A42
:10020C007B6813441A782C497B680B441B789A4200
:10021C0047D1294A7B6813441A7829497B680B44D7
:10022C001B789A423DD1294A7B6813441A78244999
:10023C007B680B441B789A4214D0214A7B68134488
:10024C001978224A7B6813440A461A701C4A7B6848
:10025C0013441B78002B24D11D4A7B68012142F8E2
:10026C0023101EE01B4A7B6852F823305A1C194994
:10027C007B6841F82320174A7B6852F82330132BF4
:10028C000FDD0F4A7B6813441B78002B04D1124AF4
:10029C007B68012142F823100E4A7B68002142F84A
:1002AC0023107B6801337B607B68022B82DD00BFEF
:1002BC0000BF0837BD4680BD0800002004000020A8
:1002CC000C000020100000201C000020000000206A
:1002DC0060000020780000206C00002080B582B007
:1002EC0000AF78607B68092B00F2808101A252F884
:1002FC0023F000BF2903000871030008B9030008AC
:10030C00010400084904000891040008D9040008FD
:10031C002105000869050008B1050008002201212B
:10032C00B54801F02CFD00220221B34801F027FD55
:10033C0000220421B04801F022FD00220821AE4821
:10034C0001F01DFD00221021AB4801F018FD002228
:10035C002021A94801F013FD01224021A64801F0FB
:10036C000EFD44E101220121A34801F008FD002209
:10037C000221A14801F003FD002204219E4801F056
:10038C00FEFC012208219C4801F0F9FC01221021FD
:10039C00994801F0F4FC01222021974801F0EFFC70
:1003AC0001224021944801F0EAFC20E100220121C5
:1003BC00914801F0E4FC002202218F4801F0DFFC9F
:1003CC00012204218C4801F0DAFC002208218A4821
:1003DC0001F0D5FC00221021874801F0D0FC01224D
:1003EC002021854801F0CBFC00224021824801F0FD
:1003FC00C6FCFCE0002201217F4801F0C0FC002279
:10040C0002217D4801F0BBFC002204217A4801F056
:10041C00B6FC00220821784801F0B1FC0122102121
:10042C00754801F0ACFC01222021734801F0A7FCB7
:10043C0000224021704801F0A2FCD8E001220121E9
:10044C006D4801F09CFC002202216B4801F097FCE6
:10045C0000220421684801F092FC01220821664820
:10046C0001F08DFC01221021634801F088FC002270
:10047C002021614801F083FC002240215E4801F0FC
:10048C007EFCB4E0002201215B4801F078FC0122E3
:10049C000221594801F073FC00220421564801F056
:1004AC006EFC00220821544801F069FC0122102145
:1004BC00514801F064FC002220214F4801F05FFC00
:1004CC00002240214C4801F05AFC90E0002201210E
:1004DC00494801F054FC01220221474801F04FFC2D
:1004EC0000220421444801F04AFC00220821424821
:1004FC0001F045FC002210213F4801F040FC002295
:10050C0020213D4801F03BFC002240213A4801F0FB
:10051C0036FC6CE000220121374801F030FC00224F
:10052C000221354801F02BFC00220421324801F055
:10053C0026FC01220821304801F021FC0122102167
:10054C002D4801F01CFC012220212B4801F017FC46
:10055C0001224021284801F012FC48E00022012130
:10056C00254801F00CFC00220221234801F007FC75
:10057C0000220421204801F002FC002208211E4820
:10058C0001F0FDFB002210211B4801F0F8FB0022BA
:10059C002021194801F0F3FB00224021164801F0FC
:1005AC00EEFB24E000220121134801F0E8FB0022BD
:1005BC000221114801F0E3FB002204210E4801F056
:1005CC00DEFB002208210C4801F0D9FB012210218E
:1005DC00094801F0D4FB00222021074801F0CFFB91
:1005EC0000224021044801F0CAFB00E000BF00BF1C
:1005FC000837BD4680BD00BF000C014080B500AF80
:10060C00864B1B68013B042B00F26B8101A252F854
:10061C0023F000BF3506000859060008F106000853
:10062C0091070008510800087D4B1B687D4A136038
:10063C007D4B1B687D4A1360784B02221A607C4B01
:10064C0001221A607B4B04221A6053E100F0FCFD7E
:10065C00784B1B68002B14DC764B04221A60714B10
:10066C001B68002B04DD6F4B1B68013B6D4A13604C
:10067C006E4B1B68002B04DD6C4B1B68013B6B4AFB
:10068C00136000F03FFF6B4B1B68013B694A136022
:10069C00664B1B68002B09D1674B1B68634A1360C0
:1006AC005E4B03221A60634B04221A600020FFF792
:1006BC0047FD0346012B40F01681584B0B221A6064
:1006CC005B4B02221A600521032000F0E7FC544B1F
:1006DC001B685A4A1360524B1B68594A136000F04E
:1006EC00C5FE00E100F0D8FD524B1B68002B14DC5A
:1006FC00504B04221A604B4B1B68002B04DD494BFA
:10070C001B68013B474A1360484B1B68002B04DDF8
:10071C00464B1B68013B454A136000F0F3FE454B0A
:10072C001B68013B434A13603E4B1B68002B0DD1E9
:10073C003D4B1B683B4A1360394B1B683B4A1360AB
:10074C00364B04221A603B4B04221A600020FFF740
:10075C00F7FC0346012B40F0C880304B0B221A608B
:10076C00334B02221A600521032000F097FC2C4B1E
:10077C001B68324A13602A4B1B68314A136000F025
:10078C0075FEB2E000F0B0FD2A4B1B68002B14DCA8
:10079C00284B04221A60234B1B68002B04DD214BD1
:1007AC001B68013B1F4A1360204B1B68002B04DDA8
:1007BC001E4B1B68013B1D4A136000F0A3FE1D4B32
:1007CC001B68013B1B4A1360164B1B68002B09D19D
:1007DC00194B1B68134A1360104B05221A60154BFA
:1007EC0004221A600020FFF7ABFC0346012B7ED1DC
:1007FC000A4B0B221A600E4B02221A6005210320B1
:10080C0000F04CFC064B1B680C4A1360044B1B6835
:10081C000B4A136000F02AFE69E000BF24000020A0
:10082C002800002088000020300000208C000020D0
:10083C0084000020340000202C00002090000020B8
:10084C009400002000F078FD2B4B1B68002B14DC6F
:10085C00294B04221A60294B1B68002B04DD274B03
:10086C001B68013B254A1360254B1B68002B04DDDC
:10087C00234B1B68013B224A136000F043FE1E4BC6
:10088C001B68013B1C4A13601D4B1B68002B0DD1D0
:10089C001C4B1B68194A13601B4B1B68184A1360CE
:1008AC001A4B02221A60144B04221A600020FFF724
:1008BC0047FC0346012B1CD1144B0B221A60144B22
:1008CC0002221A600521032000F0E8FB0D4B1B6887
:1008DC00104A13600B4B1B680F4A136000F0C6FDE7
:1008EC0007E000BF06E000BF04E000BF02E000BF6D
:1008FC0000E000BF00BF80BD340000208800002055
:10090C008C00002028000020300000202400002053
:10091C0084000020900000209400002080B500AFDF
:10092C00704B1B680D2B00F08E800D2B00F3D680C6
:10093C000B2B02D00C2B43D0D0E000F025FD012076
:10094C00FFF7FEFB0346012B04D1674B1B680133F9
:10095C00654A13600120FFF70DFC0346012B0CD1F7
:10096C00624B1B69012B08D13221042000F096FB4D
:10097C005D4B1B6801335C4A13600220FFF7E0FB00
:10098C000346012B03D1584B1B68594A13600020B6
:10099C00FFF7D6FB0346012B0FD1524B0C221A60EA
:1009AC00544B03221A60544B1B684F4A1360524B32
:1009BC001B68524A136000F059FD00F0A3FD8EE055
:1009CC0000F02EFD0120FFF7BBFB0346012B04D1E9
:1009DC00454B1B680133444A13600120FFF7CAFBE7
:1009EC000346012B0CD1414B1B69012B08D1322141
:1009FC00042000F053FB3C4B1B6801333A4A136054
:100A0C000220FFF79DFB0346012B03D1364B1B68DD
:100A1C003A4A13600020FFF793FB0346012B0FD1DA
:100A2C00304B0D221A60334B04221A60344B1B6876
:100A3C002D4A1360324B1B68324A136000F016FDCE
:100A4C0000F060FD4BE000F0C5FC0120FFF778FBE7
:100A5C000346012B04D1244B1B680133224A13603B
:100A6C000120FFF787FB0346012B0CD11F4B1B69A1
:100A7C00012B08D13221042000F010FB1A4B1B680B
:100A8C000133194A13600220FFF75AFB0346012B6E
:100A9C0003D1154B1B681B4A13600020FFF750FB5A
:100AAC000346012B17D10F4B01221A60134B1A6806
:100ABC00144B1B681A440E4B1B689A420BD10C4BFF
:100ACC001B68114A13600D4B1B680B4A13600D4BCE
:100ADC001B680B4A136000F015FD00E000BF00BF5F
:100AEC0080BD00BF24000020900000206401002085
:100AFC009400002084000020300000209C00002086
:100B0C002C000020980000202800002080B500AFA9
:100B1C0000F034FE00F00EF800F094F800F046F807
:100B2C00034801F089FD00F005F900F05FFAFCE7DD
:100B3C00B800002080B590B000AF07F11803282250
:100B4C000021184602F028F93B1D00221A605A6059
:100B5C009A60DA601A610223BB610123BB62102325
:100B6C00FB6200237B6307F11803184601F038F988
:100B7C000346002B01D000F0D7F80F237B60002335
:100B8C00BB600023FB6000233B6100237B613B1DAA
:100B9C000021184601F0A4FB0346002B01D000F005
:100BAC00C3F800BF4037BD4680BD000080B586B09D
:100BBC0000AF07F1080300221A605A609A60DA60ED
:100BCC003B4600221A605A601D4B4FF080421A605F
:100BDC001B4B09225A601A4B00229A60184B41F6A3
:100BEC003F72DA60164B00221A61154B00229A6193
:100BFC00134801F0D1FC0346002B01D000F094F80F
:100C0C004FF48053BB6007F1080319460C4801F000
:100C1C004FFE0346002B01D000F086F800233B600A
:100C2C0000237B603B461946054802F027F8034633
:100C3C00002B01D000F078F800BF1837BD4680BDFE
:100C4C00B800002080B586B000AF07F10803002281
:100C5C001A605A609A60DA60294B9B69284A43F003
:100C6C0004039361264B9B6903F004037B607B6850
:100C7C00234B9B69224A43F008039361204B9B69E9
:100C8C0003F008033B603B68002240F2FE711D48F4
:100C9C0001F075F8002240F67F011B4801F06FF857
:100CAC0040F2FE73BB600123FB6000233B61022317
:100CBC007B6107F108031946124800F0CFFE40F69D
:100CCC007F03BB600123FB6000233B6102237B613C
:100CDC0007F1080319460C4800F0C0FE4FF460738E
:100CEC00BB600023FB6001233B6107F1080319463D
:100CFC00054800F0B3FE00BF1837BD4680BD00BFED
:100D0C000010024000080140000C014080B582B088
:100D1C0000AF786000F046F900F0D8F9FFF744FA1C
:100D2C0000BF0837BD4680BD80B400AF72B600BFAF
:100D3C00FEE7000080B582B000AF0E4B00221A70A7
:100D4C0000237B6005E0786800F01AF87B680133BB
:100D5C007B607B68042BF6DD19220021064800F02D
:100D6C00E9F819220721054800F0E4F800BF08371C
:100D7C00BD4680BDB4000020090600082909000802
:100D8C0080B483B000AF78601A497A6813469B0030
:100D9C0013449B000B44043300221A6015497A68F3
:100DAC0013469B0013449B000B44083300221A602B
:100DBC0010497A6813469B0013449B000B440C3378
:100DCC0000221A700B497A6813469B0013449B004F
:100DDC000B44103300221A6006497A6813469B00B4
:100DEC0013449B000B4400221A6000BF0C37BD4615
:100DFC0080BC70470001002084B0B0B483B000AF59
:100E0C0007F1180484E80F00474B00221A700023E6
:100E1C007B602BE0F96945487A6813469B001344C4
:100E2C009B00034404331B68994225D33F497A68DD
:100E3C0013469B0013449B000B4408331B68002B88
:100E4C001AD0F96939487A6813469B0013449B0001
:100E5C00034404331B68CB1AFB617B68DBB20133A0
:100E6C00DAB2314B1A707B6801337B60304B1B78E4
:100E7C001A467B689342CDDB2D4B1B783B6036E0EA
:100E8C002A493A6813469B0013449B000B440833D1
:100E9C001B68002B28D025493A6813469B00134445
:100EAC009B000B4404331A68FB69D11A1F483A683B
:100EBC0013469B0013449B000344043319603B68A6
:100ECC005A1E1A4839680B469B000B449B00184469
:100EDC00164913469B0013449B000B4404461D46C5
:100EEC000FCD0FC42B6823603B68013B3B600E4B5E
:100EFC001B781A463B689342C2DC0B4B1B78194695
:100F0C000A4A0B469B000B449B0013441D4607F1F9
:100F1C0018040FCC0FC523682B6000BF0C37BD46DF
:100F2C00B0BC04B0704700BFB50000200001002029
:100F3C00B4000020B0B58CB002AFF860B9607A6034
:100F4C00164B1B78042B25D8FB687B61BB68BB61F7
:100F5C007B68FB61002387F82030104B1B787B6289
:100F6C000E4B1B78002B08D10D4B1D4607F11404BA
:100F7C000FCC0FC523682B6006E07B6A009307F14A
:100F8C0014030FCBFFF738FF044B1B780133DAB295
:100F9C00024B1A7000BF2837BD46B0BDB40000200C
:100FAC000001002080B400AF0F4B1B68002B17D042
:100FBC000D4B5B68002B05D00B4B5B68013B0A4A61
:100FCC0053600DE0084B1B7B0133DAB2064B1A73EE
:100FDC00054B9B68002B03D0034B9B68024A536064
:100FEC0000BFBD4680BC704700010020B0B588B082
:100FFC0002AF284B1B7B002B47D0264B1B7B013BA6
:10100C00DAB2244B1A73234B1B689847214B3C468E
:10101C001D460FCD0FC42B68236000237B6117E0A6
:10102C007B695A1C1B4879690B469B000B449B003F
:10103C001844184913469B0013449B000B44044668
:10104C001D460FCD0FC42B6823607B6901337B6178
:10105C00114B1B78013B7A699A42E1DB0E4B1B78F2
:10106C00013B1846FFF78CFEBB68002B0DD0BB680C
:10107C007B603B6900933B460FCBFFF7BDFE064BF5
:10108C001B780133DAB2044B1A7000BF1837BD4617
:10109C00B0BD00BF00010020B400002080B483B0BC
:1010AC0000AF7860396007497B683A6841F82320C3
:1010BC00054A7B68002142F8231000BF0C37BD465F
:1010CC0080BC7047780100206401002080B483B09C
:1010DC0000AF00237B601CE0124A7B6852F823307F
:1010EC00002B13DD0F4A7B6852F823305A1E0D4932
:1010FC007B6841F823200B4A7B6852F82330002B85
:10110C0004DC094A7B68012142F823107B68013317
:10111C007B607B68042BDFDD00BF00BF0C37BD4656
:10112C0080BC7047780100206401002080B485B039
:10113C0000AF154B9B69144A43F001039361124BAA
:10114C009B6903F00103BB60BB680F4BDB690E4A64
:10115C0043F08053D3610C4BDB6903F080537B600D
:10116C007B680A4B5B68FB60FB6823F0E063FB6009
:10117C00FB6843F08063FB60044AFB68536000BF6C
:10118C001437BD4680BC704700100240000001407F
:10119C0080B584B000AF78607B681B68B3F1804F7A
:1011AC0013D10C4BDB690B4A43F00103D361094BA0
:1011BC00DB6903F00103FB60FB68002200211C20AB
:1011CC0000F015FC1C2000F02EFC00BF1037BD46B3
:1011DC0080BD00BF0010024080B400AFFEE780B4B9
:1011EC0000AFFEE780B400AFFEE780B400AFFEE7CF
:1011FC0080B400AFFEE780B400AF00BFBD4680BC3A
:10120C00704780B400AF00BFBD4680BC704780B44F
:10121C0000AF00BFBD4680BC704780B500AF00F08A
:10122C00F3FA00BF80BD000080B500AF024801F0AA
:10123C004FFA00BF80BD00BFB800002080B400AFE3
:10124C0000BFBD4680BC704780B500AF0122202195
:10125C00104800F094FD002240210E4800F08FFD54
:10126C00002280210B4800F08AFD00224FF480718F
:10127C00084800F084FD00224FF40071054800F08E
:10128C007EFD01224FF48061024800F078FD00BF22
:10129C0080BD00BF0008014080B500AF01222021B5
:1012AC00104800F06CFD002240210E4800F067FD54
:1012BC00002280210B4800F062FD00224FF4807167
:1012CC00084800F05CFD01224FF40071054800F065
:1012DC0056FD00224FF48061024800F050FD00BF23
:1012EC0080BD00BF0008014080B500AF0022202166
:1012FC00104800F044FD002240210E4800F03FFD54
:10130C00012280210B4800F03AFD01224FF480713C
:10131C00084800F034FD00224FF40071054800F03D
:10132C002EFD00224FF48061024800F028FD00BF22
:10133C0080BD00BF0008014080B500AF0022202115
:10134C00104800F01CFD012240210E4800F017FD52
:10135C00002280210B4800F012FD01224FF4807115
:10136C00084800F00CFD00224FF40071054800F015
:10137C0006FD00224FF48061024800F000FD00BF22
:10138C0080BD00BF0008014080B500AF202110488F
:10139C0000F00DFD002240210D4800F0F0FC002271
:1013AC0080210B4800F0EBFC4FF48071084800F0F2
:1013BC00FEFC00224FF40071054800F0E0FC002216
:1013CC004FF48061024800F0DAFC00BF80BD00BF22
:1013DC000008014080B500AF002220210F4800F02A
:1013EC00CEFC40210D4800F0E2FC002280210B488D
:1013FC0000F0C5FC00224FF48071084800F0BFFCDF
:10140C004FF40071054800F0D2FC00224FF48061CB
:10141C00024800F0B4FC00BF80BD00BF00080140D2
:10142C0080B500AF002220210F4800F0A8FC00225C
:10143C0040210D4800F0A3FC80210B4800F0B7FCC4
:10144C0000224FF48071084800F099FC00224FF400
:10145C000071054800F093FC4FF48061024800F0E5
:10146C00A6FC00BF80BD00BF0008014080B500AFE6
:10147C0000222021214800F082FC00224FF48071D0
:10148C001E4800F07CFC002240211C4800F077FC38
:10149C0000224FF40071194800F071FC00228021E9
:1014AC00164800F06CFC00224FF48061134800F0E9
:1014BC0066FC01220121124800F061FC012202218C
:1014CC000F4800F05CFC012204210D4800F057FC91
:1014DC00012208210A4800F052FC01221021084880
:1014EC0000F04DFC01222021054800F048FC0122AF
:1014FC004021034800F043FC00BF80BD00080140C0
:10150C00000C014080B500AF3F4B1B68012B31D163
:10151C003E4B1B683E4A82FB03129210DB17D31A18
:10152C003C4A1360394B1968394B83FB01239A10E1
:10153C00CB17D21A13469B0013445B00CA1A354BC7
:10154C005A60354B1B68324A82FB03129210DB1730
:10155C00D31A304A9360304B19682D4B83FB01230F
:10156C009A10CB17D21A13469B0013445B00CA1A6D
:10157C00284BDA60244B1B68012B31DD274B1B6891
:10158C00234A82FB03129210DB17D31A214A1360F1
:10159C00224B19681E4B83FB01239A10CB17D21ACE
:1015AC0013469B0013445B00CA1A1A4B5A60164B25
:1015BC001B68174A82FB03129210DB17D31A154AC9
:1015CC009360114B1968124B83FB01239A10CB17B4
:1015DC00D21A13469B0013445B00CA1A0D4BDA60F7
:1015EC000F4B1B685A1C0E490A60184600F01CF879
:1015FC000B4B1A680B4B1B689A4202DB084B002200
:10160C001A6000BF80BD00BF84000020880000204D
:10161C0067666666A40000208C0000209000002005
:10162C00A0000020CC2D000880B582B000AF7860FF
:10163C007B68032B72D801A252F823F059160008CC
:10164C008D160008C1160008F5160008364B1B68ED
:10165C001846FEF743FE00220221344800F08FFBAF
:10166C0001220421314800F08AFB012208212F4875
:10167C0000F085FB012210212C4800F080FB4EE08D
:10168C00294B5B681846FEF729FE012202212748E8
:10169C0000F075FB00220421244800F070FB0122AD
:1016AC000821224800F06BFB012210211F4800F09A
:1016BC0066FB34E01C4B9B681846FEF70FFE0122BC
:1016CC0002211A4800F05BFB01220421174800F0AC
:1016DC0056FB00220821154800F051FB0122102175
:1016EC00124800F04CFB1AE00F4BDB681846FEF773
:1016FC00F5FD012202210D4800F041FB01220421DD
:10170C000A4800F03CFB01220821084800F037FB96
:10171C0000221021054800F032FB00E000BF00BFA2
:10172C000837BD4680BD00BFA40000200008014062
:10173C00FFF784FD0B480C490C4A002302E0D458F7
:10174C00C4500433C4188C42F9D3094A094C002301
:10175C0001E013600432A242FBD301F0F9FAFFF767
:10176C00D5F970470000002044000020FC2D000833
:10177C004400002090010020FEE7000080B500AF7F
:10178C00084B1B68074A43F010031360032000F05A
:10179C0023F90F2000F008F8FFF7C8FC00231846C7
:1017AC0080BD00BF0020024080B582B000AF7860E1
:1017BC00124B1A68124B1B7819464FF47A73B3FB11
:1017CC00F1F3B2FBF3F3184600F03BF90346002BA0
:1017DC0001D001230EE07B680F2B0AD80022796818
:1017EC004FF0FF3000F003F9064A7B6813600023CA
:1017FC0000E0012318460837BD4680BD38000020A4
:10180C00400000203C00002080B400AF054B1B784A
:10181C001A46054B1B681344034A136000BFBD46B0
:10182C0080BC7047400000208C01002080B400AFC9
:10183C00024B1B681846BD4680BC70478C010020CB
:10184C0080B485B000AF78607B6803F00703FB6061
:10185C000C4BDB68BB60BA684FF6FF031340BB60F0
:10186C00FB681A02BB68134343F0BF6343F40033B5
:10187C00BB60044ABB68D36000BF1437BD4680BC54
:10188C00704700BF00ED00E080B400AF044BDB6894
:10189C001B0A03F007031846BD4680BC704700BF07
:1018AC0000ED00E080B483B000AF0346FB7197F904
:1018BC000730002B0BDBFB7903F01F02064997F96D
:1018CC0007305B09012000FA02F241F8232000BF27
:1018DC000C37BD4680BC704700E100E080B483B09B
:1018EC0000AF03463960FB7197F90730002B0ADB18
:1018FC003B68DAB20C4997F907301201D2B20B44AB
:10190C0083F800230AE03B68DAB20849FB7903F05C
:10191C000F03043B1201D2B20B441A7600BF0C37F2
:10192C00BD4680BC704700BF00E100E000ED00E068
:10193C0080B489B000AFF860B9607A60FB6803F0DE
:10194C000703FB61FB69C3F10703042B28BF0423C6
:10195C00BB61FB690433062B02D9FB69033B00E036
:10196C0000237B614FF0FF32BB6902FA03F3DA43C9
:10197C00BB681A407B699A404FF0FF317B6901FAD2
:10198C0003F3D9437B680B40134318462437BD46F9
:10199C0080BC704780B582B000AF78607B68013B3B
:1019AC00B3F1807F01D301230FE00A4A7B68013B2E
:1019BC0053600F214FF0FF30FFF790FF054B0022D3
:1019CC009A60044B07221A60002318460837BD465C
:1019DC0080BD00BF10E000E080B582B000AF786041
:1019EC007868FFF72DFF00BF0837BD4680BD80B576
:1019FC0086B000AF0346B9607A60FB7300237B614D
:101A0C00FFF742FF78617A68B9687869FFF790FF51
:101A1C00024697F90F3011461846FFF75FFF00BFDB
:101A2C001837BD4680BD80B582B000AF0346FB7150
:101A3C0097F907301846FFF735FF00BF0837BD464A
:101A4C0080BD80B582B000AF78607868FFF7A2FFE8
:101A5C00034618460837BD4680BD000080B48BB0E5
:101A6C0000AF7860396000237B6200233B6248E161
:101A7C0001227B6A02FA03F3FB613B681B68FA697B
:101A8C001340BB61BA69FB699A4240F037813B68ED
:101A9C005B68A34A93425ED0A14A934275D8A14A8F
:101AAC00934258D09F4A93426FD89F4A934252D048
:101ABC009D4A934269D89D4A93424CD09B4A93428B
:101ACC0063D89B4A934246D0994A93425DD8122BD5
:101ADC002AD8122B59D801A252F823F0631B000804
:101AEC003D1B00084F1B0008911B0008971B0008AA
:101AFC00971B0008971B0008971B0008971B0008F2
:101B0C00971B0008971B0008971B0008971B0008E1
:101B1C00971B0008971B0008971B0008971B0008D1
:101B2C00451B0008591B0008824A934213D02CE035
:101B3C003B68DB683B6229E03B68DB6804333B6253
:101B4C0024E03B68DB6808333B621FE03B68DB68E2
:101B5C000C333B621AE03B689B68002B02D10423D8
:101B6C003B6213E03B689B68012B05D108233B6269
:101B7C007B68FA691A6109E008233B627B68FA69A1
:101B8C005A6103E000233B6200E000BFBB69FF2BFE
:101B9C0001D87B6801E07B6804337B61BB69FF2B58
:101BAC0002D87B6A9B0002E07B6A083B9B003B618E
:101BBC007B691A680F213B6901FA03F3DB431A4076
:101BCC00396A3B6901FA03F31A437B691A603B6873
:101BDC005B6803F08053002B00F09080564B9B69A0
:101BEC00554A43F001039361534B9B6903F0010386
:101BFC00BB60BB68514A7B6A9B08023352F82330A6
:101C0C00FB607B6A03F003039B000F2202FA03F3D1
:101C1C00DB43FA681340FB607B68494A93420DD062
:101C2C007B68484A934207D07B68474A934201D16C
:101C3C00022304E0032302E0012300E000237A6A7C
:101C4C0002F0030292009340FA681343FB603B4995
:101C5C007B6A9B080233FA6841F823203B685B6877
:101C6C0003F48013002B06D0384B9A683749BB69B4
:101C7C0013438B6006E0354B9A68BB69DB433349F1
:101C8C0013408B603B685B6803F40013002B06D099
:101C9C002E4BDA682D49BB691343CB6006E02B4B06
:101CAC00DA68BB69DB4329491340CB603B685B684E
:101CBC0003F40033002B06D0244B5A682349BB692C
:101CCC0013434B6006E0214B5A68BB69DB431F4949
:101CDC0013404B603B685B6803F48033002B06D0E9
:101CEC001A4B1A681949BB6913430B6006E0174B72
:101CFC001A68BB69DB43154913400B607B6A0133DF
:101D0C007B623B681A687B6A22FA03F3002B7FF430
:101D1C00AFAE00BF00BF2C37BD4680BC704700BFC4
:101D2C0000003210000031100000221000002110C1
:101D3C0000001210000011100010024000000140C1
:101D4C0000080140000C014000100140000401405B
:101D5C0080B485B000AF78600B467B807B689A6856
:101D6C007B881340002B02D00123FB7301E000237E
:101D7C00FB73FB7B18461437BD4680BC704780B4A0
:101D8C0083B000AF78600B467B8013467B707B780A
:101D9C00002B03D07A887B681A6103E07B881A04D5
:101DAC007B681A6100BF0C37BD4680BC704780B49D
:101DBC0085B000AF78600B467B807B68DB68FB608E
:101DCC007A88FB6813401A04FB68D9437B880B4064
:101DDC001A437B681A6100BF1437BD4680BC70473C
:101DEC0080B586B000AF78607B68002B01D10123F1
:101DFC006CE27B681B6803F00103002B00F087800A
:101E0C00924B5B6803F00C03042B0CD08F4B5B687C
:101E1C0003F00C03082B12D18C4B5B6803F480335A
:101E2C00B3F5803F0BD1894B1B6803F40033002BB7
:101E3C006CD07B685B68002B68D1012346E27B6821
:101E4C005B68B3F5803F06D1804B1B687F4A43F437
:101E5C00803313602EE07B685B68002B0CD17B4BCE
:101E6C001B687A4A23F480331360784B1B68774ADB
:101E7C0023F4802313601DE07B685B68B3F5A02F0F
:101E8C000CD1724B1B68714A43F4802313606F4B67
:101E9C001B686E4A43F4803313600BE06B4B1B687A
:101EAC006A4A23F480331360684B1B68674A23F437
:101EBC00802313607B685B68002B13D0FFF7B6FCA4
:101ECC00386108E0FFF7B2FC02463B69D31A642B79
:101EDC0001D90323FAE15D4B1B6803F40033002B9B
:101EEC00F0D014E0FFF7A2FC386108E0FFF79EFC8D
:101EFC0002463B69D31A642B01D90323E6E1534B09
:101F0C001B6803F40033002BF0D100E000BF7B68AA
:101F1C001B6803F00203002B63D04C4B5B6803F08F
:101F2C000C03002B0BD0494B5B6803F00C03082B04
:101F3C001CD1464B5B6803F48033002B16D1434B0A
:101F4C001B6803F00203002B05D07B681B69012B77
:101F5C0001D00123BAE13D4B1B6823F0F8027B68EA
:101F6C005B69DB00394913430B603AE07B681B6902
:101F7C00002B20D0364B01221A60FFF757FC38613A
:101F8C0008E0FFF753FC02463B69D31A022B01D938
:101F9C0003239BE12D4B1B6803F00203002BF0D0B5
:101FAC002A4B1B6823F0F8027B685B69DB0027492E
:101FBC0013430B6015E0264B00221A60FFF736FC2A
:101FCC00386108E0FFF732FC02463B69D31A022B5A
:101FDC0001D903237AE11D4B1B6803F00203002B8C
:101FEC00F0D17B681B6803F00803002B3AD07B68A8
:101FFC009B69002B19D0174B01221A60FFF716FCB6
:10200C00386108E0FFF712FC02463B69D31A022B39
:10201C0001D903235AE10D4B5B6A03F00203002B39
:10202C00F0D0012000F09AFA1CE00A4B00221A6052
:10203C00FFF7FCFB38610FE0FFF7F8FB02463B694A
:10204C00D31A022B08D9032340E100BF0010024031
:10205C0000004242800442429E4B5B6A03F0020342
:10206C00002BE9D17B681B6803F00403002B00F004
:10207C00A6800023FB75974BDB6903F08053002B84
:10208C000DD1944BDB69934A43F08053D361914B50
:10209C00DB6903F08053BB60BB680123FB758E4B7F
:1020AC001B6803F48073002B18D18B4B1B688A4A76
:1020BC0043F480731360FFF7B9FB386108E0FFF756
:1020CC00B5FB02463B69D31A642B01D90323FDE00F
:1020DC00814B1B6803F48073002BF0D07B68DB68AA
:1020EC00012B06D17B4B1B6A7A4A43F00103136226
:1020FC002DE07B68DB68002B0CD1764B1B6A754A94
:10210C0023F001031362734B1B6A724A23F004031E
:10211C0013621CE07B68DB68052B0CD16D4B1B6AD2
:10212C006C4A43F0040313626A4B1B6A694A43F01E
:10213C00010313620BE0674B1B6A664A23F0010331
:10214C001362644B1B6A634A23F0040313627B68BB
:10215C00DB68002B15D0FFF769FB38610AE0FFF74D
:10216C0065FB02463B69D31A41F28832934201D98E
:10217C000323ABE0574B1B6A03F00203002BEED09A
:10218C0014E0FFF753FB38610AE0FFF74FFB024600
:10219C003B69D31A41F28832934201D9032395E06B
:1021AC004C4B1B6A03F00203002BEED1FB7D012B81
:1021BC0005D1484BDB69474A23F08053D3617B68D8
:1021CC00DB69002B00F08180424B5B6803F00C0351
:1021DC00082B61D07B68DB69022B46D13F4B002278
:1021EC001A60FFF723FB386108E0FFF71FFB02467C
:1021FC003B69D31A022B01D9032367E0354B1B68CB
:10220C0003F00073002BF0D17B681B6AB3F5803FA1
:10221C0008D1304B5B6823F400327B689B682D49F6
:10222C0013434B602B4B5B6823F474127B68196A65
:10223C007B685B6A0B43274913434B60274B012296
:10224C001A60FFF7F3FA386108E0FFF7EFFA02467D
:10225C003B69D31A022B01D9032337E01D4B1B68B2
:10226C0003F00073002BF0D02FE01C4B00221A60FF
:10227C00FFF7DCFA386108E0FFF7D8FA02463B6951
:10228C00D31A022B01D9032320E0124B1B6803F055
:10229C000073002BF0D118E07B68DB69012B01D1B6
:1022AC00012313E00B4B5B68FB60FB6803F480328B
:1022BC007B681B6A9A4206D1FB6803F470127B6838
:1022CC005B6A9A4201D0012300E0002318461837BC
:1022DC00BD4680BD001002400070004060004242CC
:1022EC0080B584B000AF786039607B68002B01D179
:1022FC000123D0E06A4B1B6803F007033A689A424B
:10230C0010D9674B1B6823F0070265493B681343E0
:10231C000B60634B1B6803F007033A689A4201D0C9
:10232C000123B8E07B681B6803F00203002B20D06C
:10233C007B681B6803F00403002B05D0594B5B68CA
:10234C00584A43F4E06353607B681B6803F008034E
:10235C00002B05D0534B5B68524A43F460535360D7
:10236C00504B5B6823F0F0027B689B684D4913432C
:10237C004B607B681B6803F00103002B40D07B682B
:10238C005B68012B07D1474B1B6803F40033002B10
:10239C0015D101237FE07B685B68022B07D1414B91
:1023AC001B6803F00073002B09D1012373E03D4B34
:1023BC001B6803F00203002B01D101236BE0394BA6
:1023CC005B6823F003027B685B68364913434B6000
:1023DC00FFF72CFAF8600AE0FFF728FA0246FB68D0
:1023EC00D31A41F28832934201D9032353E02D4B87
:1023FC005B6803F00C027B685B689B009A42EBD134
:10240C00274B1B6803F007033A689A4210D2244BFF
:10241C001B6823F0070222493B6813430B60204BD7
:10242C001B6803F007033A689A4201D0012332E09B
:10243C007B681B6803F00403002B08D0194B5B6806
:10244C0023F4E0627B68DB68164913434B607B68BE
:10245C001B6803F00803002B09D0124B5B6823F4B4
:10246C0060527B681B69DB000E4913434B6000F024
:10247C0021F802460B4B5B681B0903F00F030A495A
:10248C00CB5C22FA03F3094A1360094B1B6818460C
:10249C00FFF78AF9002318461037BD4680BD00BFF0
:1024AC000020024000100240D02D0008380000200F
:1024BC003C00002080B487B000AF0023FB600023F9
:1024CC00BB6000237B6100237B6000233B611E4BC0
:1024DC005B68FB60FB6803F00C03042B02D0082B39
:1024EC0003D027E0194B3B6127E0FB689B0C03F002
:1024FC000F03174AD35C7B60FB6803F48033002B1B
:10250C0010D0114B5B685B0C03F00103114AD35CD8
:10251C00BB607B680D4A02FB03F2BB68B2FBF3F3B2
:10252C007B6104E07B680C4A02FB03F37B617B69F3
:10253C003B6102E0054B3B6100BF3B6918461C3711
:10254C00BD4680BC704700BF0010024000127A00EC
:10255C00E02D0008F02D000800093D0080B485B086
:10256C0000AF78600A4B1B680A4AA2FB03235B0A84
:10257C007A6802FB03F3FB6000BFFB685A1EFA602B
:10258C00002BF9D100BF00BF1437BD4680BC70478B
:10259C0038000020D34D621080B582B000AF786057
:1025AC007B68002B01D1012341E07B6893F83D301F
:1025BC00DBB2002B06D17B68002283F83C207868C4
:1025CC00FEF7E6FD7B68022283F83D207B681A68E3
:1025DC007B6804331946104600F056FA7B680122DA
:1025EC0083F846207B68012283F83E207B68012219
:1025FC0083F83F207B68012283F840207B6801220E
:10260C0083F841207B68012283F842207B680122F9
:10261C0083F843207B68012283F844207B680122E5
:10262C0083F845207B68012283F83D20002318465F
:10263C000837BD4680BD000080B485B000AF78601F
:10264C007B6893F83D30DBB2012B01D0012335E0E0
:10265C007B68022283F83D207B681B68DA687B6804
:10266C001B6842F00102DA607B681B68164A9342D1
:10267C0009D07B681B68B3F1804F04D07B681B6862
:10268C00124A934211D17B681B689B6803F00703C5
:10269C00FB60FB68062B10D07B681B681A687B6894
:1026AC001B6842F001021A6007E07B681B681A681D
:1026BC007B681B6842F001021A600023184614372D
:1026CC00BD4680BC704700BF002C01400004004098
:1026DC0080B584B000AF78607B681B68DB68FB60FA
:1026EC007B681B681B69BB60BB6803F00203002B93
:1026FC0020D0FB6803F00203002B1BD07B681B6807
:10270C006FF002021A617B6801221A777B681B68E2
:10271C009B6903F00303002B03D0786800F098F951
:10272C0005E0786800F08BF9786800F09AF97B681E
:10273C0000221A77BB6803F00403002B20D0FB683F
:10274C0003F00403002B1BD07B681B686FF00402A2
:10275C001A617B6802221A777B681B689B6903F4F9
:10276C004073002B03D0786800F072F905E07868AC
:10277C0000F065F9786800F074F97B6800221A772C
:10278C00BB6803F00803002B20D0FB6803F00803A0
:10279C00002B1BD07B681B686FF008021A617B68EA
:1027AC0004221A777B681B68DB6903F00303002B98
:1027BC0003D0786800F04CF905E0786800F03FF938
:1027CC00786800F04EF97B6800221A77BB6803F03A
:1027DC001003002B20D0FB6803F01003002B1BD040
:1027EC007B681B686FF010021A617B6808221A77ED
:1027FC007B681B68DB6903F44073002B03D078689B
:10280C0000F026F905E0786800F019F9786800F016
:10281C0028F97B6800221A77BB6803F00103002BB0
:10282C000CD0FB6803F00103002B07D07B681B68FE
:10283C006FF001021A617868FEF768FABB6803F062
:10284C008003002B0CD0FB6803F08003002B07D017
:10285C007B681B686FF080021A61786800F06FFA71
:10286C00BB6803F04003002B0CD0FB6803F0400363
:10287C00002B07D07B681B686FF040021A617868E8
:10288C0000F0F8F8BB6803F02003002B0CD0FB68B9
:10289C0003F02003002B07D07B681B686FF020022D
:1028AC001A61786800F042FA00BF1037BD4680BD4F
:1028BC0080B584B000AF786039600023FB737B680F
:1028CC0093F83C30012B01D10223B4E07B68012248
:1028DC0083F83C207B68022283F83D207B681B68D0
:1028EC009B68BB60BB6823F07703BB60BB6823F4B9
:1028FC007F43BB607B681B68BA689A603B681B6847
:10290C00B3F5005F3ED0B3F5005F00F28780B3F5FE
:10291C00805F00F08680B3F5805F7FD8702B1AD073
:10292C00702B7BD8602B50D0602B77D8502B3CD0A1
:10293C00502B73D8402B58D0402B6FD8302B64D0F1
:10294C00302B6BD8202B60D0202B67D8002B5CD081
:10295C00102B5AD062E07B6818683B6899683B681A
:10296C005A683B68DB6800F06AF97B681B689B68F7
:10297C00BB60BB6843F07703BB607B681B68BA68BD
:10298C009A604FE07B6818683B6899683B685A68A6
:10299C003B68DB6800F053F97B681B689A687B68BE
:1029AC001B6842F480429A603CE07B6818683B6884
:1029BC0059683B68DB681A4600F0CAF87B681B68EC
:1029CC005021184600F021F92CE07B6818683B6810
:1029DC0059683B68DB681A4600F0E8F87B681B68AE
:1029EC006021184600F011F91CE07B6818683B6800
:1029FC0059683B68DB681A4600F0AAF87B681B68CC
:102A0C004021184600F001F90CE07B681A683B681D
:102A1C001B681946104600F0F8F803E00123FB731D
:102A2C0000E000BF7B68012283F83D207B68002218
:102A3C0083F83C20FB7B18461037BD4680BD80B424
:102A4C0083B000AF786000BF0C37BD4680BC7047C8
:102A5C0080B483B000AF786000BF0C37BD4680BC3B
:102A6C00704780B483B000AF786000BF0C37BD46B0
:102A7C0080BC704780B483B000AF786000BF0C3767
:102A8C00BD4680BC7047000080B485B000AF786054
:102A9C0039607B681B68FB607B682B4A934207D0CC
:102AAC007B68B3F1804F03D07B68284A934208D1EE
:102ABC00FB6823F07003FB603B685B68FA681343A8
:102ACC00FB607B68204A934207D07B68B3F1804F50
:102ADC0003D07B681D4A934208D1FB6823F44073F2
:102AEC00FB603B68DB68FA681343FB60FB6823F010
:102AFC0080023B685B691343FB607B68FA681A6071
:102B0C003B689A687B68DA623B681A687B689A62F1
:102B1C007B680D4A934203D13B681A697B681A6340
:102B2C007B6801225A617B681B6903F00103002B4F
:102B3C0005D07B681B6923F001027B681A6100BF1A
:102B4C001437BD4680BC7047002C01400004004087
:102B5C0080B487B000AFF860B9607A60FB681B6A1C
:102B6C007B61FB681B6A23F00102FB681A62FB683D
:102B7C009B693B613B6923F0F0033B617B681B0164
:102B8C003A6913433B617B6923F00A037B617A69E1
:102B9C00BB6813437B61FB683A699A61FB687A698D
:102BAC001A6200BF1C37BD4680BC704780B487B02A
:102BBC0000AFF860B9607A60FB681B6A7B61FB68E8
:102BCC001B6A23F01002FB681A62FB689B693B616D
:102BDC003B6923F470433B617B681B033A691343E5
:102BEC003B617B6923F0A0037B61BB681B017A69A5
:102BFC0013437B61FB683A699A61FB687A691A62D4
:102C0C0000BF1C37BD4680BC704780B485B000AF98
:102C1C00786039607B689B68FB60FB6823F070030D
:102C2C00FB603A68FB68134343F00703FB607B6867
:102C3C00FA689A6000BF1437BD4680BC704780B4F8
:102C4C0087B000AFF860B9607A603B60FB689B6846
:102C5C007B617B6923F47F437B613B681A027B6851
:102C6C001A43BB6813437A6913437B61FB687A6927
:102C7C009A6000BF1C37BD4680BC704780B485B0DD
:102C8C0000AF786039607B6893F83C30012B01D140
:102C9C00022341E07B68012283F83C207B680222FE
:102CAC0083F83D207B681B685B68FB607B681B6856
:102CBC009B68BB60FB6823F07003FB603B681B6880
:102CCC00FA681343FB607B681B68FA685A607B6880
:102CDC001B68144A934209D07B681B68B3F1804F80
:102CEC0004D07B681B68104A93420CD1BB6823F05C
:102CFC008003BB603B685B68BA681343BB607B684E
:102D0C001B68BA689A607B68012283F83D207B6857
:102D1C00002283F83C20002318461437BD4680BCA3
:102D2C00704700BF002C01400004004080B483B009
:102D3C0000AF786000BF0C37BD4680BC704780B4D4
:102D4C0083B000AF786000BF0C37BD4680BC7047C5
:102D5C0070B500260C4D0D4C641BA410A64209D175
:102D6C0000F022F800260A4D0A4C641BA410A6425F
:102D7C0005D170BD55F8043B98470136EEE755F880
:102D8C00043B98470136F2E7F42D0008F42D0008B7
:102D9C00F42D0008F82D000803460244934200D19C
:102DAC00704703F8011BF9E7F8B500BFF8BC08BC85
:102DBC009E467047F8B500BFF8BC08BC9E467047ED
:102DCC0004000000000000000000000001020304E9
:102DDC000607080902030405060708090A0B0C0D6F
:082DEC000E0F1010010200009F
:042DF40031010008A1
:042DF8000D010008C1
:102DFC0001010100010101000101010001010100BB
:102E0C00000C0140000C0140000C0140800000014E
:102E1C00000200000100000005000000020000009C
:102E2C00030000000400000000127A0010000000F3
:042E3C000100000091
:040000050800173D9B
:00000001FF
